{
  "transactions": [
    {
      "hash": "0xd4dc154fdecd727eff683cf852706ca566acf0fd2860ae21140fda56f08d9f93",
      "transactionType": "CREATE",
      "contractName": "DevOpsTools",
      "contractAddress": "0x1e4CcC1c46939f1E36b2617DCAb7Fd20A29850CE",
      "function": null,
      "arguments": null,
      "transaction": {
        "type": "0x02",
        "from": "0xddee1a853ca5afc1e7634b4dfa1d7103c655c22a",
        "gas": "0xebb6e",
        "data": "0x610c7861003a600b82828239805160001a60731461002d57634e487b7160e01b600052600060045260246000fd5b30600052607381538281f3fe730000000000000000000000000000000000000000301460806040526004361061006c5760003560e01c806326dceeb7146100715780632aa1c696146100ae5780633a768463146100e5578063a6066fa514610100578063d76ca83d14610108578063e374cdf11461011b575b600080fd5b81801561007d57600080fd5b5061009161008c366004610897565b61013b565b6040516001600160a01b0390911681526020015b60405180910390f35b6100d86040518060400160405280600b81526020016a0b8bd89c9bd85918d85cdd60aa1b81525081565b6040516100a59190610979565b610091737109709ecfa91a80626ff3989d68f67f5b1dd12d81565b6100d8610507565b6100d861011636600461098c565b610523565b81801561012757600080fd5b506100916101363660046109c1565b6106da565b600061014683610523565b925061015182610523565b60408051600180825281830190925291935060009190816020015b606081526020019060019003908161016c579050509050604051806040016040528060038152602001621c1dd960ea1b815250816000815181106101b2576101b2610a06565b6020908102919091010152604051638916046760e01b8152600090737109709ecfa91a80626ff3989d68f67f5b1dd12d906389160467906101f7908590600401610a1c565b6000604051808303816000875af1158015610216573d6000803e3d6000fd5b505050506040513d6000823e601f3d908101601f1916820160405261023e9190810190610ab5565b60408051600580825260c0820190925291925060009190816020015b606081526020019060019003908161025a579050509050604051806040016040528060048152602001630c4c2e6d60e31b815250816000815181106102a1576102a1610a06565b602002602001018190525081856040516020016102bf929190610afe565b604051602081830303815290604052816001815181106102e1576102e1610a06565b6020026020010181905250878160028151811061030057610300610a06565b602090810291909101015260405163348051d760e11b815260048101889052737109709ecfa91a80626ff3989d68f67f5b1dd12d90636900a3ae90602401600060405180830381865afa15801561035b573d6000803e3d6000fd5b505050506040513d6000823e601f3d908101601f191682016040526103839190810190610ab5565b8160038151811061039657610396610a06565b602002602001018190525081866040516020016103b4929190610b2d565b604051602081830303815290604052816004815181106103d6576103d6610a06565b6020908102919091010152604051638916046760e01b8152600090737109709ecfa91a80626ff3989d68f67f5b1dd12d9063891604679061041b908590600401610a1c565b6000604051808303816000875af115801561043a573d6000803e3d6000fd5b505050506040513d6000823e601f3d908101601f191682016040526104629190810190610ab5565b90506104916040518060400160405280600c81526020016b2932ba3ab937102230ba309d60a11b81525061072c565b61049a81610772565b60006104a582610b69565b60601c905080156104bc5794506104ff9350505050565b60405162461bcd60e51b8152602060048201526014602482015273139bc818dbdb9d1c9858dd0819195c1b1bde595960621b604482015260640160405180910390fd5b949350505050565b604051806060016040528060318152602001610c126031913981565b80516060908290600090815b835181101561057e5783818151811061054a5761054a610a06565b6020910101516001600160f81b031916600160fd1b1461056c5780925061057e565b8061057681610bbb565b91505061052f565b5082515b80156105d85783610594600183610bd4565b815181106105a4576105a4610a06565b6020910101516001600160f81b031916600160fd1b146105c6578091506105d8565b806105d081610be7565b915050610582565b508282815181106105eb576105eb610a06565b01602001516001600160f81b031916601760f91b036106125761060f600183610bfe565b91505b600061061e8383610bd4565b67ffffffffffffffff811115610636576106366107d2565b6040519080825280601f01601f191660200182016040528015610660576020820181803683370190505b50905060005b81518110156106d0578461067a8286610bfe565b8151811061068a5761068a610a06565b602001015160f81c60f81b8282815181106106a7576106a7610a06565b60200101906001600160f81b031916908160001a905350806106c881610bbb565b915050610666565b5095945050505050565b600061072383836040518060400160405280600b81526020016a0b8bd89c9bd85918d85cdd60aa1b815250604051806060016040528060318152602001610c126031913961013b565b90505b92915050565b61076f816040516024016107409190610979565b60408051601f198184030181529190526020810180516001600160e01b031663104c13eb60e21b1790526107b1565b50565b61076f816040516024016107869190610979565b60408051601f198184030181529190526020810180516001600160e01b03166305f3bfab60e11b1790525b80516a636f6e736f6c652e6c6f67602083016000808483855afa5050505050565b634e487b7160e01b600052604160045260246000fd5b604051601f8201601f1916810167ffffffffffffffff81118282101715610811576108116107d2565b604052919050565b600067ffffffffffffffff821115610833576108336107d2565b50601f01601f191660200190565b600082601f83011261085257600080fd5b813561086561086082610819565b6107e8565b81815284602083860101111561087a57600080fd5b816020850160208301376000918101602001919091529392505050565b600080600080608085870312156108ad57600080fd5b843567ffffffffffffffff808211156108c557600080fd5b6108d188838901610841565b95506020870135945060408701359150808211156108ee57600080fd5b6108fa88838901610841565b9350606087013591508082111561091057600080fd5b5061091d87828801610841565b91505092959194509250565b60005b8381101561094457818101518382015260200161092c565b50506000910152565b60008151808452610965816020860160208601610929565b601f01601f19169290920160200192915050565b602081526000610723602083018461094d565b60006020828403121561099e57600080fd5b813567ffffffffffffffff8111156109b557600080fd5b6104ff84828501610841565b600080604083850312156109d457600080fd5b823567ffffffffffffffff8111156109eb57600080fd5b6109f785828601610841565b95602094909401359450505050565b634e487b7160e01b600052603260045260246000fd5b6000602080830181845280855180835260408601915060408160051b870101925083870160005b82811015610a7157603f19888603018452610a5f85835161094d565b94509285019290850190600101610a43565b5092979650505050505050565b6000610a8c61086084610819565b9050828152838383011115610aa057600080fd5b610aae836020830184610929565b9392505050565b600060208284031215610ac757600080fd5b815167ffffffffffffffff811115610ade57600080fd5b8201601f81018413610aef57600080fd5b6104ff84825160208401610a7e565b60008351610b10818460208801610929565b835190830190610b24818360208801610929565b01949350505050565b60008351610b3f818460208801610929565b602f60f81b9083019081528351610b5d816001840160208801610929565b01600101949350505050565b805160208201516bffffffffffffffffffffffff198082169291906014831015610b9d5780818460140360031b1b83161693505b505050919050565b634e487b7160e01b600052601160045260246000fd5b600060018201610bcd57610bcd610ba5565b5060010190565b8181038181111561072657610726610ba5565b600081610bf657610bf6610ba5565b506000190190565b8082018082111561072657610726610ba556fe2e2f6c69622f666f756e6472792d6465766f70732f7372632f6765745f726563656e745f6465706c6f796d656e742e7368a2646970667358221220d4aa94cd0f9646136682ac17ec6fdd4fc605433b3fcd9d9849be311007ba056e64736f6c63430008150033",
        "nonce": "0x67",
        "accessList": []
      },
      "additionalContracts": [],
      "isFixedGasLimit": false
    },
    {
      "hash": "0x8876ae6026548e967200a226cfd2c7ea32f6b9ea12dac5b4d50e473b2b76ea96",
      "transactionType": "CALL",
      "contractName": "VRFCoordinatorV2",
      "contractAddress": "0x8103B0A8A00be2DDC778e6e7eaa21791Cd364625",
      "function": "createSubscription():(uint64)",
      "arguments": [],
      "transaction": {
        "type": "0x02",
        "from": "0xddee1a853ca5afc1e7634b4dfa1d7103c655c22a",
        "to": "0x8103b0a8a00be2ddc778e6e7eaa21791cd364625",
        "gas": "0x1558c",
        "value": "0x0",
        "data": "0xa21a23e4",
        "nonce": "0x68",
        "accessList": []
      },
      "additionalContracts": [],
      "isFixedGasLimit": false
    },
    {
      "hash": "0xbf30254a9cea8d871a51d879ad07014e922667f314a6977e3e6ba7c0d8be6e81",
      "transactionType": "CALL",
      "contractName": "LinkToken",
      "contractAddress": "0x779877A7B0D9E8603169DdbD7836e478b4624789",
      "function": "transferAndCall(address,uint256,bytes):(bool)",
      "arguments": [
        "0x8103B0A8A00be2DDC778e6e7eaa21791Cd364625",
        "5000000000000000000",
        "0x000000000000000000000000000000000000000000000000000000000000180e"
      ],
      "transaction": {
        "type": "0x02",
        "from": "0xddee1a853ca5afc1e7634b4dfa1d7103c655c22a",
        "to": "0x779877a7b0d9e8603169ddbd7836e478b4624789",
        "gas": "0x1b43f",
        "value": "0x0",
        "data": "0x4000aea00000000000000000000000008103b0a8a00be2ddc778e6e7eaa21791cd3646250000000000000000000000000000000000000000000000004563918244f4000000000000000000000000000000000000000000000000000000000000000000600000000000000000000000000000000000000000000000000000000000000020000000000000000000000000000000000000000000000000000000000000180e",
        "nonce": "0x69",
        "accessList": []
      },
      "additionalContracts": [],
      "isFixedGasLimit": false
    },
    {
      "hash": "0xc218a95c86b451812ce4667fdca31c22e274d207aedc6080a6d9378ab39df426",
      "transactionType": "CREATE",
      "contractName": "Lottery",
      "contractAddress": "0xf44885F4677a84E029e7966bE21f7FbA5De6cB6e",
      "function": null,
      "arguments": [
        "1000000000000000",
        "120",
        "0x8103B0A8A00be2DDC778e6e7eaa21791Cd364625",
        "0x474e34a077df58807dbe9c96d3c009b23b3c6d0cce433e59bbf5b34f823bc56c",
        "6158",
        "500000"
      ],
      "transaction": {
        "type": "0x02",
        "from": "0xddee1a853ca5afc1e7634b4dfa1d7103c655c22a",
        "gas": "0x1022b5",
        "value": "0x0",
        "data": "0x61016060405234801561001157600080fd5b50604051610e99380380610e998339810160408190526100309161009c565b6001600160a01b03841660805260a086905260c0859052426001819055610058908690610127565b6002556001600160a01b039390931660e052610100919091526001600160401b03166101205263ffffffff166101405250506004805460ff60a01b1916905561014e565b60008060008060008060c087890312156100b557600080fd5b86516020880151604089015191975095506001600160a01b03811681146100db57600080fd5b6060880151608089015191955093506001600160401b03811681146100ff57600080fd5b60a088015190925063ffffffff8116811461011957600080fd5b809150509295509295509295565b8082018082111561014857634e487b7160e01b600052601160045260246000fd5b92915050565b60805160a05160c05160e051610100516101205161014051610cd56101c460003960006103970152600061036001526000610338015260006103d5015260008181610486015281816104e0015261051d0152600081816101de015261063301526000818161022201526102640152610cd56000f3fe60806040526004361061009c5760003560e01c80636e04ff0d116100645780636e04ff0d14610164578063c1af578514610192578063c1c244e81461019a578063e55ae4e8146101af578063e586a4f0146101cf578063fd6673f51461020257600080fd5b80631fe543e3146100a15780634585e33b146100c3578063473f1ddc146100e357806351d641271461011a5780636b68c03c1461013d575b600080fd5b3480156100ad57600080fd5b506100c16100bc366004610974565b610217565b005b3480156100cf57600080fd5b506100c16100de366004610a26565b6102a4565b3480156100ef57600080fd5b506004546001600160a01b03165b6040516001600160a01b0390911681526020015b60405180910390f35b34801561012657600080fd5b5061012f610476565b604051908152602001610111565b34801561014957600080fd5b50600454600160a01b900460ff166040516101119190610aae565b34801561017057600080fd5b5061018461017f366004610ad6565b6104da565b604051610111929190610b6b565b6100c1610631565b3480156101a657600080fd5b5060015461012f565b3480156101bb57600080fd5b506100fd6101ca366004610bc3565b61071c565b3480156101db57600080fd5b507f000000000000000000000000000000000000000000000000000000000000000061012f565b34801561020e57600080fd5b5060005461012f565b336001600160a01b037f000000000000000000000000000000000000000000000000000000000000000016146102965760405163073e64fd60e21b81523360048201526001600160a01b037f00000000000000000000000000000000000000000000000000000000000000001660248201526044015b60405180910390fd5b6102a0828261074b565b5050565b60006102be604051806020016040528060008152506104da565b5090508061031457600054600454479190600160a01b900460ff1660018111156102ea576102ea610a98565b604051636e195f2560e01b815260048101939093526024830191909152604482015260640161028d565b60048054600160a01b60ff60a01b199091161781556040516305d3b1d360e41b81527f0000000000000000000000000000000000000000000000000000000000000000918101919091527f000000000000000000000000000000000000000000000000000000000000000067ffffffffffffffff166024820152600360448201527f000000000000000000000000000000000000000000000000000000000000000063ffffffff166064820152600160848201526000906001600160a01b037f00000000000000000000000000000000000000000000000000000000000000001690635d3b1d309060a4016020604051808303816000875af115801561041e573d6000803e3d6000fd5b505050506040513d601f19601f820116820180604052508101906104429190610bdc565b60405190915081907febf56642252004c18a776f30d528e7a0ce8c5db14b6596fb6550f630c8a24c6c90600090a250505050565b600354600090429082906104aa907f0000000000000000000000000000000000000000000000000000000000000000610c0b565b6002546104b79190610c28565b90508082106104c95760009250505090565b6104d38282610c3b565b9250505090565b600060607f0000000000000000000000000000000000000000000000000000000000000000600260008282546105109190610c28565b90915550506001546000907f0000000000000000000000000000000000000000000000000000000000000000906105479042610c3b565b101590506000600460149054906101000a900460ff16600181111561056e5761056e610a98565b6000546001549115925047151591811515919061058b9042610c3b565b60045460405147917faa20553678fff4132b015d4211297a06fe9cc23ef012679710c2ea29a44e19bd916105c991600160a01b900460ff1690610aae565b60405180910390a48380156105db5750825b80156105e45750815b80156105ed5750805b95508561060a576003805490600061060483610c4e565b91905055505b50506040805180820190915260048152630307830360e41b60208201529395939450505050565b7f00000000000000000000000000000000000000000000000000000000000000003410156106725760405163356c00ab60e01b815260040160405180910390fd5b6000600454600160a01b900460ff16600181111561069257610692610a98565b146106b05760405163183372d960e11b815260040160405180910390fd5b600080546001810182558180527f290decd9548b62a8d60345a988386fc84ba6bc95484008f6362f93160ef3e5630180546001600160a01b0319163390811790915560405190917fc8001bd3c1806afa3fbde07a543ea4392bd51d3b466cd2427d82baabd430f2a991a2565b600080828154811061073057610730610c67565b6000918252602090912001546001600160a01b031692915050565b6000805482518390839061076157610761610c67565b60200260200101516107739190610c7d565b9050600080828154811061078957610789610c67565b6000918252602082200154600480546001600160a01b0319166001600160a01b03909216918217905591506040519080825280602002602001820160405280156107dd578160200160208202803683370190505b5080516107f2916000916020909101906108b3565b506004805460ff60a01b19169055426001556040516001600160a01b038216907fb112587e57bfa970257f3d54fc52859c6300f6bd7a982462c320fed45c2530ed90600090a26000816001600160a01b03164760405160006040518083038185875af1925050503d8060008114610885576040519150601f19603f3d011682016040523d82523d6000602084013e61088a565b606091505b50509050806108ac57604051638f97f7cf60e01b815260040160405180910390fd5b5050505050565b828054828255906000526020600020908101928215610908579160200282015b8281111561090857825182546001600160a01b0319166001600160a01b039091161782556020909201916001909101906108d3565b50610914929150610918565b5090565b5b808211156109145760008155600101610919565b634e487b7160e01b600052604160045260246000fd5b604051601f8201601f1916810167ffffffffffffffff8111828210171561096c5761096c61092d565b604052919050565b6000806040838503121561098757600080fd5b8235915060208084013567ffffffffffffffff808211156109a757600080fd5b818601915086601f8301126109bb57600080fd5b8135818111156109cd576109cd61092d565b8060051b91506109de848301610943565b81815291830184019184810190898411156109f857600080fd5b938501935b83851015610a16578435825293850193908501906109fd565b8096505050505050509250929050565b60008060208385031215610a3957600080fd5b823567ffffffffffffffff80821115610a5157600080fd5b818501915085601f830112610a6557600080fd5b813581811115610a7457600080fd5b866020828501011115610a8657600080fd5b60209290920196919550909350505050565b634e487b7160e01b600052602160045260246000fd5b6020810160028310610ad057634e487b7160e01b600052602160045260246000fd5b91905290565b60006020808385031215610ae957600080fd5b823567ffffffffffffffff80821115610b0157600080fd5b818501915085601f830112610b1557600080fd5b813581811115610b2757610b2761092d565b610b39601f8201601f19168501610943565b91508082528684828501011115610b4f57600080fd5b8084840185840137600090820190930192909252509392505050565b821515815260006020604081840152835180604085015260005b81811015610ba157858101830151858201606001528201610b85565b506000606082860101526060601f19601f830116850101925050509392505050565b600060208284031215610bd557600080fd5b5035919050565b600060208284031215610bee57600080fd5b5051919050565b634e487b7160e01b600052601160045260246000fd5b8082028115828204841417610c2257610c22610bf5565b92915050565b80820180821115610c2257610c22610bf5565b81810381811115610c2257610c22610bf5565b600060018201610c6057610c60610bf5565b5060010190565b634e487b7160e01b600052603260045260246000fd5b600082610c9a57634e487b7160e01b600052601260045260246000fd5b50069056fea2646970667358221220935fa0fdde7e87a341b3db3099280982ec1fdb6e51398c7847cc068ff873a89664736f6c6343000815003300000000000000000000000000000000000000000000000000038d7ea4c6800000000000000000000000000000000000000000000000000000000000000000780000000000000000000000008103b0a8a00be2ddc778e6e7eaa21791cd364625474e34a077df58807dbe9c96d3c009b23b3c6d0cce433e59bbf5b34f823bc56c000000000000000000000000000000000000000000000000000000000000180e000000000000000000000000000000000000000000000000000000000007a120",
        "nonce": "0x6a",
        "accessList": []
      },
      "additionalContracts": [],
      "isFixedGasLimit": false
    },
    {
      "hash": "0x63d0cb1255e70628329ddff42b04ad52ce5529c2e06695479ced6b4253197a7e",
      "transactionType": "CALL",
      "contractName": "VRFCoordinatorV2",
      "contractAddress": "0x8103B0A8A00be2DDC778e6e7eaa21791Cd364625",
      "function": "addConsumer(uint64,address)",
      "arguments": [
        "6158",
        "0xf44885F4677a84E029e7966bE21f7FbA5De6cB6e"
      ],
      "transaction": {
        "type": "0x02",
        "from": "0xddee1a853ca5afc1e7634b4dfa1d7103c655c22a",
        "to": "0x8103b0a8a00be2ddc778e6e7eaa21791cd364625",
        "gas": "0x21eb0",
        "value": "0x0",
        "data": "0x7341c10c000000000000000000000000000000000000000000000000000000000000180e000000000000000000000000f44885f4677a84e029e7966be21f7fba5de6cb6e",
        "nonce": "0x6b",
        "accessList": []
      },
      "additionalContracts": [],
      "isFixedGasLimit": false
    }
  ],
  "receipts": [
    {
      "transactionHash": "0xd4dc154fdecd727eff683cf852706ca566acf0fd2860ae21140fda56f08d9f93",
      "transactionIndex": "0x19",
      "blockHash": "0x4cf6a72254a5b4e12d5172c7cfae55ffe17b045cb01addb6ccd116ab39c2cab2",
      "blockNumber": "0x44ef78",
      "from": "0xdDeE1A853Ca5aFc1E7634B4dfA1d7103C655c22a",
      "to": null,
      "cumulativeGasUsed": "0x4256a5",
      "gasUsed": "0xb55e6",
      "contractAddress": "0x1e4CcC1c46939f1E36b2617DCAb7Fd20A29850CE",
      "logs": [],
      "status": "0x1",
      "logsBloom": "0x00000000000000000000000000000000000000000000000000000000000000000000000000000000000000000000000000000000000000000000000000000000000000000000000000000000000000000000000000000000000000000000000000000000000000000000000000000000000000000000000000000000000000000000000000000000000000000000000000000000000000000000000000000000000000000000000000000000000000000000000000000000000000000000000000000000000000000000000000000000000000000000000000000000000000000000000000000000000000000000000000000000000000000000000000000000",
      "type": "0x2",
      "effectiveGasPrice": "0x11c6fd500"
    },
    {
      "transactionHash": "0x8876ae6026548e967200a226cfd2c7ea32f6b9ea12dac5b4d50e473b2b76ea96",
      "transactionIndex": "0x1a",
      "blockHash": "0x4cf6a72254a5b4e12d5172c7cfae55ffe17b045cb01addb6ccd116ab39c2cab2",
      "blockNumber": "0x44ef78",
      "from": "0xdDeE1A853Ca5aFc1E7634B4dfA1d7103C655c22a",
      "to": "0x8103B0A8A00be2DDC778e6e7eaa21791Cd364625",
      "cumulativeGasUsed": "0x43402f",
      "gasUsed": "0xe98a",
      "contractAddress": null,
      "logs": [
        {
          "address": "0x8103B0A8A00be2DDC778e6e7eaa21791Cd364625",
          "topics": [
            "0x464722b4166576d3dcbba877b999bc35cf911f4eaf434b7eba68fa113951d0bf",
            "0x000000000000000000000000000000000000000000000000000000000000180e"
          ],
          "data": "0x000000000000000000000000ddee1a853ca5afc1e7634b4dfa1d7103c655c22a",
          "blockHash": "0x4cf6a72254a5b4e12d5172c7cfae55ffe17b045cb01addb6ccd116ab39c2cab2",
          "blockNumber": "0x44ef78",
          "transactionHash": "0x8876ae6026548e967200a226cfd2c7ea32f6b9ea12dac5b4d50e473b2b76ea96",
          "transactionIndex": "0x1a",
          "logIndex": "0x22",
          "removed": false
        }
      ],
      "status": "0x1",
      "logsBloom": "0x0000001000000000000001000000000000000000000000000000000000000000010000000000000000000000000000000000000000000000000000000000000000000000000000000000000000000000040000000000000000000000000000000000000000000000000000000000000000000000000000000000000000000000000000000c000020000000000000000000000000000000000000000000000000000000000000000000000000000000000000000000000000000000000000000000000000000000200000000000002000000000000000000000000000000000000000000000000000000000000000000000000000000000000000000000000000",
      "type": "0x2",
      "effectiveGasPrice": "0x11c6fd500"
    },
    {
      "transactionHash": "0xbf30254a9cea8d871a51d879ad07014e922667f314a6977e3e6ba7c0d8be6e81",
      "transactionIndex": "0x1b",
      "blockHash": "0x4cf6a72254a5b4e12d5172c7cfae55ffe17b045cb01addb6ccd116ab39c2cab2",
      "blockNumber": "0x44ef78",
      "from": "0xdDeE1A853Ca5aFc1E7634B4dfA1d7103C655c22a",
      "to": "0x779877A7B0D9E8603169DdbD7836e478b4624789",
      "cumulativeGasUsed": "0x446a79",
      "gasUsed": "0x12a4a",
      "contractAddress": null,
      "logs": [
        {
          "address": "0x779877A7B0D9E8603169DdbD7836e478b4624789",
          "topics": [
            "0xddf252ad1be2c89b69c2b068fc378daa952ba7f163c4a11628f55a4df523b3ef",
            "0x000000000000000000000000ddee1a853ca5afc1e7634b4dfa1d7103c655c22a",
            "0x0000000000000000000000008103b0a8a00be2ddc778e6e7eaa21791cd364625"
          ],
          "data": "0x0000000000000000000000000000000000000000000000004563918244f40000",
          "blockHash": "0x4cf6a72254a5b4e12d5172c7cfae55ffe17b045cb01addb6ccd116ab39c2cab2",
          "blockNumber": "0x44ef78",
          "transactionHash": "0xbf30254a9cea8d871a51d879ad07014e922667f314a6977e3e6ba7c0d8be6e81",
          "transactionIndex": "0x1b",
          "logIndex": "0x23",
          "removed": false
        },
        {
          "address": "0x779877A7B0D9E8603169DdbD7836e478b4624789",
          "topics": [
            "0xe19260aff97b920c7df27010903aeb9c8d2be5d310a2c67824cf3f15396e4c16",
            "0x000000000000000000000000ddee1a853ca5afc1e7634b4dfa1d7103c655c22a",
            "0x0000000000000000000000008103b0a8a00be2ddc778e6e7eaa21791cd364625"
          ],
          "data": "0x0000000000000000000000000000000000000000000000004563918244f4000000000000000000000000000000000000000000000000000000000000000000400000000000000000000000000000000000000000000000000000000000000020000000000000000000000000000000000000000000000000000000000000180e",
          "blockHash": "0x4cf6a72254a5b4e12d5172c7cfae55ffe17b045cb01addb6ccd116ab39c2cab2",
          "blockNumber": "0x44ef78",
          "transactionHash": "0xbf30254a9cea8d871a51d879ad07014e922667f314a6977e3e6ba7c0d8be6e81",
          "transactionIndex": "0x1b",
          "logIndex": "0x24",
          "removed": false
        },
        {
          "address": "0x8103B0A8A00be2DDC778e6e7eaa21791Cd364625",
          "topics": [
            "0xd39ec07f4e209f627a4c427971473820dc129761ba28de8906bd56f57101d4f8",
            "0x000000000000000000000000000000000000000000000000000000000000180e"
          ],
          "data": "0x00000000000000000000000000000000000000000000000000000000000000000000000000000000000000000000000000000000000000004563918244f40000",
          "blockHash": "0x4cf6a72254a5b4e12d5172c7cfae55ffe17b045cb01addb6ccd116ab39c2cab2",
          "blockNumber": "0x44ef78",
          "transactionHash": "0xbf30254a9cea8d871a51d879ad07014e922667f314a6977e3e6ba7c0d8be6e81",
          "transactionIndex": "0x1b",
          "logIndex": "0x25",
          "removed": false
        }
      ],
      "status": "0x1",
      "logsBloom": "0x0000001400000000000000000000000000000000000000020000000002000000000000000002800000000000000000000000000000000000000000000000000000000000000000000000000800000000040000000000000000002000000000000000000000000000000000000000000000000000404000000000001000000000000000000c000020000000000000800010000020000000000000000004000000000000000000000000000000000000000000000000000000000400000000000000000002000000000000000000002000000000000000000100000000000000000000000000000000000000000000000000000000000000000000000000000000",
      "type": "0x2",
      "effectiveGasPrice": "0x11c6fd500"
    },
    {
      "transactionHash": "0xc218a95c86b451812ce4667fdca31c22e274d207aedc6080a6d9378ab39df426",
      "transactionIndex": "0x1c",
      "blockHash": "0x4cf6a72254a5b4e12d5172c7cfae55ffe17b045cb01addb6ccd116ab39c2cab2",
      "blockNumber": "0x44ef78",
      "from": "0xdDeE1A853Ca5aFc1E7634B4dfA1d7103C655c22a",
      "to": null,
      "cumulativeGasUsed": "0x50d4e7",
      "gasUsed": "0xc6a6e",
      "contractAddress": "0xf44885F4677a84E029e7966bE21f7FbA5De6cB6e",
      "logs": [],
      "status": "0x1",
      "logsBloom": "0x00000000000000000000000000000000000000000000000000000000000000000000000000000000000000000000000000000000000000000000000000000000000000000000000000000000000000000000000000000000000000000000000000000000000000000000000000000000000000000000000000000000000000000000000000000000000000000000000000000000000000000000000000000000000000000000000000000000000000000000000000000000000000000000000000000000000000000000000000000000000000000000000000000000000000000000000000000000000000000000000000000000000000000000000000000000",
      "type": "0x2",
      "effectiveGasPrice": "0x11c6fd500"
    },
    {
      "transactionHash": "0x63d0cb1255e70628329ddff42b04ad52ce5529c2e06695479ced6b4253197a7e",
      "transactionIndex": "0x1d",
      "blockHash": "0x4cf6a72254a5b4e12d5172c7cfae55ffe17b045cb01addb6ccd116ab39c2cab2",
      "blockNumber": "0x44ef78",
      "from": "0xdDeE1A853Ca5aFc1E7634B4dfA1d7103C655c22a",
      "to": "0x8103B0A8A00be2DDC778e6e7eaa21791Cd364625",
      "cumulativeGasUsed": "0x5247f9",
      "gasUsed": "0x17312",
      "contractAddress": null,
      "logs": [
        {
          "address": "0x8103B0A8A00be2DDC778e6e7eaa21791Cd364625",
          "topics": [
            "0x43dc749a04ac8fb825cbd514f7c0e13f13bc6f2ee66043b76629d51776cff8e0",
            "0x000000000000000000000000000000000000000000000000000000000000180e"
          ],
          "data": "0x000000000000000000000000f44885f4677a84e029e7966be21f7fba5de6cb6e",
          "blockHash": "0x4cf6a72254a5b4e12d5172c7cfae55ffe17b045cb01addb6ccd116ab39c2cab2",
          "blockNumber": "0x44ef78",
          "transactionHash": "0x63d0cb1255e70628329ddff42b04ad52ce5529c2e06695479ced6b4253197a7e",
          "transactionIndex": "0x1d",
          "logIndex": "0x26",
          "removed": false
        }
      ],
      "status": "0x1",
      "logsBloom": "0x0000001000000000000000000000000000000000000000000000000000000000000000000000000000000000000000000000000000000000000000000000000000000000000000000000000000000000040000000000000000000000000000000000000000008000000000000000000000000000000000000000000000000000000000000c000020000000000000000000000000000000000000000000000000000000000000000000000080000000000000000000000000000000000000000000000000000000000000000000002000000000000000000000020000000000000000000000000000000000000000000000000000000000000000000000000000",
      "type": "0x2",
      "effectiveGasPrice": "0x11c6fd500"
    }
  ],
  "libraries": [
    "lib/foundry-devops/src/DevOpsTools.sol:DevOpsTools:0x1e4ccc1c46939f1e36b2617dcab7fd20a29850ce"
  ],
  "pending": [],
  "returns": {
    "1": {
      "internal_type": "contract HelperConfig",
      "value": "0xC7f2Cf4845C6db0e1a1e91ED41Bcd0FcC1b0E141"
    },
    "0": {
      "internal_type": "contract Lottery",
      "value": "0xf44885F4677a84E029e7966bE21f7FbA5De6cB6e"
    }
  },
  "timestamp": 1697692277,
  "chain": 11155111,
  "multi": false,
  "commit": "60ec598"
}